:1000000045C0000061C000005FC000005DC000008E
:100010005BC0000059C0000057C0000055C0000080
:1000200053C0000051C0000017C200004DC00000C6
:10003000F3C6000049C0000047C00000B7C100007F
:1000400043C0000041C000003FC000003DC00000B0
:100050003BC000007AC2000037C0000035C000007D
:1000600033C0000031C0000053C700002DC00000A5
:100070002BC0000029C0000027C0000025C00000E0
:1000800023C0000021C000001FC0000011241FBEBB
:10009000CFEFD0E1DEBFCDBF17E0A0E0B1E0E8EBED
:1000A000F2E100E00BBF02C007900D92A430B1074F
:1000B000D9F727E0A4E0B7E001C01D92A037B2074E
:1000C000E1F795D60C945A099BCF1ABA8FEF87BBEC
:1000D00084BB11BA12B8109261008093640017B803
:1000E0008FE886B98FE083BF11BE1FBC8DE08EBD47
:1000F00010927A001BBC1ABC96E094BD93E095BDAB
:1001000010928B0080938A0010928C0010928700CE
:100110001092860082E587BF80E180937D0078940D
:100120004ED368D60C94DB08089514D686B180644B
:1001300086B986B10E94DD0880910C07873021F4D2
:1001400010920C07109201010895962F61E070E063
:10015000082E02C0660F771F0A94E2F760952BB352
:100160002623692F70E002C0660F771F8A95E2F799
:10017000622B6BBB0895962F61E070E0082E02C0E1
:10018000660F771F0A94E2F7609528B32623692F3C
:1001900070E002C0660F771F8A95E2F7622B68BB9A
:1001A0000895962F61E070E0082E02C0660F771F59
:1001B0000A94E2F76095E5E6F0E020812623692FB6
:1001C00070E002C0660F771F8A95E2F7622B6083AA
:1001D000089590E002C0959587956A95E2F7817041
:1001E000089599231CF49195819591090895CF92D2
:1001F000DF92EF92FF920F931F93CF93DF938C01C7
:10020000EB0180E0883038F4E82FF0E0E25FF84F4F
:1002100010828F5FF7CF780182E0F81A6E0182E0DA
:10022000D81AC701DEDF809720F4E12CF12C00E022
:1002300012E0C601D6DF809720F4C12CD12CC0E09B
:10024000D2E0E114F10419F5C114D10401F5809153
:100250000D078823E1F080910C07883010F0109290
:100260000C0780910C07E82FF0E0ED51F94F208149
:1002700090910001291304C08F5F80930C0702C086
:1002800010920C0784E08093000110920D0706FD88
:100290000FC0000F012F001F110B119527E030E058
:1002A000201B310B83E001C0880F2A95EAF70EC0AE
:1002B000000F012F001F110B119527E030E0201BCC
:1002C000310B81E001C0880F2A95EAF79E010024D6
:1002D000220F331F001C220F331F001C232F302D31
:1002E00020FD0FC0CC0FCD2FCC1FDD0BD195FE0113
:1002F000E25FF84F8083232B61F0C35FD84F888380
:1003000008C0CC0FCD2FCC1FDD0BD195C25FD84FCD
:1003100088838091F602823019F4B601C70183D632
:1003200085EFE81681E0F8065CF080910D078111F9
:1003300007C083E08093000181E080930D072DC00A
:100340008CE0E8168EEFF8065CF480910D078111C1
:1003500007C082E08093000181E080930D071DC0FB
:1003600085EFC81681E0D80654F080910D07811101
:1003700006C081E08093000180930D070EC08CE0E1
:10038000C8168EEFD8064CF480910D07811105C078
:100390001092000181E080930D07DF91CF911F91B2
:1003A0000F91FF90EF90DF90CF9008951F920F92E2
:1003B0000FB60F9211240BB60F922F933F934F93CA
:1003C0005F936F937F938F939F93AF93BF93EF93BD
:1003D000FF938091180790911907969587959695A8
:1003E0008795382F20910B07213079F481BF109227
:1003F0000B0780910407813021F460E085E0BBDECB
:1004000018C061E085E0B7DE14C091E090930B075F
:10041000809581BF3F3F11F481E081BF8091040747
:10042000813021F460E085E0A6DE03C060E085E075
:10043000A2DEFF91EF91BF91AF919F918F917F913C
:100440006F915F914F913F912F910F900BBE0F9045
:100450000FBE0F901F9018951F920F920FB60F921C
:1004600011240BB60F922F933F938F939F93AF93CB
:10047000BF93EF93FF9386E084BD809122078F5F47
:1004800080932207843651F510922207809120072D
:100490009091210701969093210780932007A091C6
:1004A000F60222E3A29FD0011124AE5FBE4FFD01F0
:1004B00001900020E9F73197EA1BFB0B9F01220F07
:1004C000331F220F331F220F331F2E1B3F0B8217A8
:1004D000930720F0109221071092200780911A07AD
:1004E0008F5F80931A078A3011F410921A07809157
:1004F000F602823069F480910101823049F48091E2
:1005000005079091060701969093060780930507CB
:1005100080910507909106078838934139F410922D
:1005200006071092050781E08093F602FF91EF9194
:10053000BF91AF919F918F913F912F910F900BBEE3
:100540000F900FBE0F901F9018951F920F920FB62D
:100550000F9211240BB60F922F933F934F935F93FB
:100560006F937F938F939F93AF93BF93CF93DF93BB
:10057000EF93FF9380911F07813089F028F082303C
:10058000D9F0833011F128C010921F0784B195B1C2
:1005900090931E0780931D0781E087B91DC024B189
:1005A00035B18FEF93E0821B930B90931C078093E0
:1005B0001B0782E087B910C084B195B190931907E9
:1005C0008093180783E087B907C084B195B19093F1
:1005D00017078093160717B880911F0790E00196C0
:1005E00083709078992324F401978C6F9F6F019604
:1005F00080931F0760911B0770911C0780911D0756
:1006000090911E07F4DD80911D0790911E07925076
:1006100090930A0780930907C0911B07D0911C078C
:10062000D250D0930807C0930707DBDD8F3F9105B9
:1006300009F020F410920A0710920907CE01D1DDCB
:100640008F3F910509F020F41092080710920707D8
:100650008091090790910A07892B31F4809107074F
:1006600090910807892B39F082E08093F60210926E
:10067000060710920507FF91EF91DF91CF91BF918F
:10068000AF919F918F917F916F915F914F913F912A
:100690002F910F900BBE0F900FBE0F901F901895CB
:1006A0008FB9779BFECF0895CF93C62FF9DF8C2F9C
:1006B000F7DFCF910895BF92CF92DF92EF92FF9232
:1006C0000F931F93CF93DF93CDB7DEB728970FB665
:1006D000F894DEBF0FBECDBF7C01FE01319688E0ED
:1006E000DF011D928A95E9F7C12CB7E0BC1508F12E
:1006F000D12CE7E0ED15D8F001E010E00C0F1D1F44
:100700000C0D111DD801BC90F701ED0DF11D67E036
:100710006C1980815EDD90E00D2C02C0880F991F5E
:100720000A94E2F78B29F8018083D394E2CFC39433
:10073000DCCF20E0283078F4822F90E0F701E80F3A
:10074000F91FA1E0B0E0AC0FBD1FA80FB91F8C913D
:1007500080832F5FEFCF28960FB6F894DEBF0FBED1
:10076000CDBFDF91CF911F910F91FF90EF90DF9060
:10077000CF90BF900895682F90E080E09830F0F41B
:1007800021E030E0092E02C0220F331F0A94E2F765
:10079000462F50E024233523092E02C03595279596
:1007A0000A94E2F747E050E0491B510902C0220FCA
:1007B000331F4A95E2F7822B9F5FE0CF08958F9217
:1007C0009F92AF92BF92CF92DF92EF92FF920F93E0
:1007D0001F93CF93DF93CDB7DEB72C970FB6F89466
:1007E000DEBF0FBECDBF812C83E38815B0F1C82CCE
:1007F000D12C8601000F111F000F111F000F111FB8
:10080000C801895C9A4F57DFC80189569C4F53DF56
:10081000912C97E09915F8F0E92CF12C8601000F46
:10082000111F000F111F000F111FC801895C9A4F83
:100830005C01AE0CBF1CF50180819DDFF50180835A
:1008400009561C4F0E0D1F1DF801808194DFF80121
:1008500080839394DECF8394C7CF812CF9E0F81581
:10086000B0F1C82CD12C8601000F111F000F111FF1
:10087000000F111FC801895B9C4F1DDFC801895003
:100880009D4F19DF912C87E08915F8F0E92CF12CA8
:100890008601000F111F000F111F000F111FC8014B
:1008A000895B9C4F5C01AE0CBF1CF501808163DF4E
:1008B000F501808309501D4F0E0D1F1DF801808129
:1008C0005ADFF80180839394DECF8394C7CF87B338
:1008D000876087BB81E58DB98CE0E7EDF6E0DE014E
:1008E000119601900D928A95E1F700E00630D0F460
:1008F00060E080E040DC10E0143078F4E02FF0E0BD
:10090000EE0FFF1F81E090E08C0F9D1FE80FF91F95
:1009100061818081C9DE1F5FEFCF61E080E02BDC69
:100920000F5FE4CF80E08830A0F4E82FF0E0EE0F16
:10093000FF1FEE0FFF1FEE0FFF1FEB5DF84F108242
:1009400011821282138214821582168217828F5F9F
:10095000EACF2C960FB6F894DEBF0FBECDBFDF9165
:10096000CF911F910F91FF90EF90DF90CF90BF90AC
:10097000AF909F908F900895EFEBE80FEA31E0F48D
:10098000442369F0F0E0EE0FFF1FEE0FFF1FEE0FA4
:10099000FF1FE956FC4FE60FF11D80810895F0E03E
:1009A000EE0FFF1FEE0FFF1FEE0FFF1FE95CFA4F68
:1009B000E60FF11D808108959FE9980F9A31F0F4B8
:1009C000E9EBE80F442369F0F0E0EE0FFF1FEE0FB4
:1009D000FF1FEE0FFF1FE956FC4FE60FF11D808150
:1009E0000895F0E0EE0FFF1FEE0FFF1FEE0FFF1F49
:1009F000E95CFA4FE60FF11D80810895E0EDE80F04
:100A0000EA30E0F4442369F0F0E0EE0FFF1FEE0F50
:100A1000FF1FEE0FFF1FE950FD4FE60FF11D808114
:100A20000895F0E0EE0FFF1FEE0FFF1FEE0FFF1F08
:100A3000E95BFC4FE60FF11D8081089580E0089589
:100A4000882389F090E0A0E0B0E028E130E0261BA8
:100A50003109BC01CD0104C0660F771F881F991FA3
:100A60002A95D2F7089560E070E0CB0108952F92A7
:100A70003F924F925F926F927F928F929F92AF922E
:100A8000BF92CF92DF92EF92FF920F931F93CF937B
:100A9000DF9300D000D01F92CDB7DEB79B838A834F
:100AA000F62E062F10E0F801EE0FFF1FEE0FFF1FCE
:100AB000EE0FFF1FEB5DF84F10821182128213823E
:100AC00014821582168217828091010181113FC024
:100AD000E12CE8E9F1E001900020E9F7CF01895924
:100AE00091402E2D30E02817390708F008C19801F1
:100AF000220F331F220F331F220F331F2B5D384F5E
:100B00003D832C83F90180809180C280D3808E2D1B
:100B1000880F8E0D382E330C80912007381AEE2D59
:100B2000F0E0E856FE4F41E06F2D808125DF632D18
:100B300087DF9B01AC01822A932AC42AD52AEC8143
:100B4000FD8180829182C282D382E394C2CF8130C0
:100B500009F03FC0E12CEAECF1E001900020E9F758
:100B6000CF018B5C91402E2D30E02817390708F01B
:100B7000C6C09801220F331F220F331F220F331FCD
:100B80002B5D384F3D832C83F90180809180C2809A
:100B9000D3808E2D880F8E0D382E330C8091200738
:100BA000381AEE2DF0E0E653FE4F41E06F2D8081C4
:100BB000E3DE632D45DF9B01AC01822A932AC42A20
:100BC000D52AEC81FD8180829182C282D382E39416
:100BD000C2CF8090F602912C22E3289DC001299D6E
:100BE000900D11249C012E5F3E4F6901F901019087
:100BF0000020E9F73197E21BF30B3597D8F5E12C8C
:100C000033E03E1590F1C801880F991F880F991F96
:100C1000880F991F8B5D984F9D838C83FC016080AA
:100C20007180C280D38082E3889DF001899DF00DA0
:100C30001124EE5FFE4FEE0DF11D41E06F2D80811E
:100C40009BDE9E2D990F9E0D692F660FF9DE9B018D
:100C5000AC01622A732AC42AD52AEC81FD81608204
:100C60007182C282D382E394CBCF1092210710927B
:100C7000200745C0E12CF60101900020E9F73197EB
:100C8000EC19FD098E2D90E08E179F07C0F5980195
:100C9000220F331F220F331F220F331F2B5D384FBC
:100CA0003D832C83F9013080418052806380F5813F
:100CB000F9838E2D880F8E0D782E770C809120076A
:100CC000781A82E3889DF001899DF00D1124EE5F72
:100CD000FE4FEE0DF11D41E06F2D80814DDE672D41
:100CE000AFDE9B01AC01322A432A542A652AEC81EB
:100CF000FD813082418252826382E394BCCF000F37
:100D0000111F000F111F000F111FF801EB5DF84FAD
:100D1000AA81BB81AF0DB11D3C9130831482158235
:100D2000168217820F900F900F900F900F90DF9107
:100D3000CF911F910F91FF90EF90DF90CF90BF90D8
:100D4000AF909F908F907F906F905F904F903F906B
:100D50002F9008950F931F93CF93DF9360912407F3
:100D600061508EE097E083DE60E080E004DAC0E06E
:100D7000C43060F5D0912407D11105C060912307DC
:100D80008AE092DC21C0ED2FF0E03197EE0FFF1FDB
:100D9000EE0FFF1FEE0FFF1FEB5DF84F208131813B
:100DA00042815381648175810C2F10E0000F111F67
:100DB000000F111F000F111F868197814BD2822FC8
:100DC000DADC682F8D2F70DCCF5FD2CF61E080E05E
:100DD000D2D98091240790E0019669E070E025D295
:100DE00080932407DF91CF911F910F9108956DD9C2
:100DF0009CD9FECF8FEF8ABBEEE6F7E0108211821E
:100E0000E6E6F7E081E080838183EAE6F7E011829D
:100E100010821382128208951F920F920FB60F92C2
:100E200011240BB60F922F933F934F935F938F93A1
:100E30009F93EF93FF932091660730916807432FAC
:100E4000032E000C550BE22FF0E0EE0FFF1FEE0F0C
:100E5000FF1FEE0FFF1FE551F94FE40FF51F8081D3
:100E600090916507907F8F70892B80936507223062
:100E7000F8F490916E07913079F44F5F5F4F4370B3
:100E80005078552334F4415051094C6F5F6F4F5FD8
:100E90005F4F409368072CC09F3F51F5311104C04C
:100EA00093E09093680724C031503093680720C0C6
:100EB0002230F1F490916E07913079F44F5F5F4FDB
:100EC00047705078552334F441505109486F5F6F93
:100ED0004F5F5F4F409368070BC09F3F49F431114C
:100EE00004C097E09093680703C0315030936807BF
:100EF00085BBFF91EF919F918F915F914F913F91B2
:100F00002F910F900BBE0F900FBE0F901F90189552
:100F10001F920F920FB60F9211240BB60F922F93C0
:100F20003F934F935F938F939F93EF93FF93209102
:100F3000670730916907432F032E000C550BE22FF2
:100F4000F0E0EE0FFF1FEE0FFF1FEE0FFF1FE5514A
:100F5000F94FE40FF51F8081909165079F70807FA6
:100F6000892B809365072230F8F490916F079130B8
:100F700079F44F5F5F4F43705078552334F44150FC
:100F800051094C6F5F6F4F5F5F4F409369072CC0F3
:100F90009F3F51F5311104C093E09093690724C03D
:100FA00031503093690720C02230F1F490916F07DF
:100FB000913079F44F5F5F4F47705078552334F488
:100FC00041505109486F5F6F4F5F5F4F4093690712
:100FD0000BC09F3F49F4311104C097E0909369071B
:100FE00003C031503093690785BBFF91EF919F910A
:100FF0008F915F914F913F912F910F900BBE0F906A
:101000000FBE0F901F9018950C9B07C081E0809336
:10101000040761E080E0C5C808951092040760E00D
:1010200080E0BFC808950F931F93CF93DF938C0187
:10103000EB01892B21F080910407813039F4109263
:101040006E0710926B0710926A0715C0112354F4B3
:101050008FEF80936E07C801C4D890936B0780937D
:101060006A0709C081E080936E07C801BAD89093DF
:101070006B0780936A07209721F0809104078130E5
:1010800039F410926F0710926D0710926C0715C01B
:10109000DD2354F48FEF80936F07CE01A2D8909395
:1010A0006D0780936C0709C081E080936F07CE01C4
:1010B00098D890936D0780936C0780916E0781118B
:1010C00004C08EB58A7F8EBD03C08EB585608EBD8F
:1010D00080916F07811106C0EAE8F0E080818A7F85
:1010E000808305C0EAE8F0E0808185608083EAE6DD
:1010F000F7E02081318180E090E0AC01421B530B8E
:101100009A01220F331F245B3B4F3BBD2ABD228136
:101110003381821B930B880F991F845B9B4F9093A5
:10112000870092819195892F880F845B8093860038
:101130002CB53DB58AB59BB58217930710F41DBC3D
:101140001CBC2091890030E0322F2227809188003A
:10115000282B80916C0790916D079195819591094D
:10116000880F991F845B9B4F8217930720F410927E
:10117000890010928800012B29F460E080E00E9431
:10118000A50004C061E080E00E94A500CD2B29F4F9
:1011900060E081E00E94A50004C061E081E00E945F
:1011A000A5008091F602823009F42EDFDF91CF9105
:1011B0001F910F91089511BA08958091F602813020
:1011C00099F581B1682F617080FF04C081E0809340
:1011D000040702C01092040780E00E94D10090B37F
:1011E00093FF03C064E670E002C064EF71E090FF1B
:1011F00003C024E630E002C024EF31E094FD08C0D3
:1012000095FF04C031952195310902C020E030E0FE
:1012100096FD08C0992324F471956195710902C067
:1012200060E070E0C901FFCE089597FB072E16F429
:10123000009406D077FD08D029D007FC05D03EF4F5
:10124000909581959F4F0895709561957F4F089572
:1012500097FB10F8169400080F93083098F0085088
:10126000232F342F452F562F672F782F892F902D1E
:10127000F4CF0594979587957795679557954795FA
:10128000379527950A95AAF70F910895AA1BBB1BBE
:1012900051E107C0AA1FBB1FA617B70710F0A61B76
:1012A000B70B881F991F5A95A9F780959095BC0197
:0812B000CD010895F894FFCF71
:1012B800040253746F70000000000000000000007A
:1012C8000000000000000000000000000000000016
:1012D8000000000000000000000000000000000006
:1012E800000000004175746F00000000000000005D
:1012F80000000000000000000000000000000000E6
:1013080000000000000000000000000000000000D5
:101318000000000000004D616E75616C0000000067
:1013280000000000000000000000000000000000B5
:1013380000000000000000000000000000000000A5
:101348000000000000000000557365204A6F7973A3
:101358007469636B20746F2061696D2074617267B2
:10136800657400000000000000000000000000009C
:101378000000000000000000000050726573732038
:10138800627574746F6E20746F20666972650000F0
:101398000000000000000000000000000000000045
:1013A8000000000000000000000000000000000035
:1013B8000000000000000000000000000000000025
:1013C8000000000000000000000000000000000015
:1013D8000000000000000000000000000000000005
:1013E80000000000000000000000000000000000F5
:1013F80000000000000000000000000000000000E5
:1014080000000000000000000000000000000000D4
:1014180000000000000000000000000000000000C4
:1014280000000000000000000000000000000000B4
:1014380000000000000000000000000000000000A4
:101448000000000000000000000000000000000094
:101458000000000000000000000000000000000084
:101468000000000000000000000000000000000074
:101478000000000000000000000000000000000064
:101488000000000000000000000000000000000054
:101498000000000000000000000000000000000044
:1014A80000000000000002007C7C827C7C000000C0
:1014B80084FEFE8000000000C4E6B29E8C0000009E
:1014C80044C692FE6C000000181C16FEFE000000C8
:1014D8004ECE8AFA720000007CFE8AFA7000000084
:1014E800C2E2321E0E0000006CFE92FE6C0000008C
:1014F8006CFE92FE6C0000007CA2928A7C000000C8
:101508000004FE000000000082C2A2928C000000CD
:10151800929292926C0000001E101010FE000000C3
:101528009E929292620000007C929292600000006B
:101538000202C2320E0000006C9292926C0000000F
:101548000C9292927C000000FCFE12FEFC0000004F
:10155800FEFE92FE6C0000007CFE82C64400000085
:10156800FEFE82FE7C000000FEFE929282000000D9
:10157800FEFE1212020000007CFE82F6F40000005B
:10158800FEFE10FEFE00000082FEFE82000000004B
:1015980040C082FE7E020000FEFE38EEC60000005B
:1015A800FEFE808080000000FEFE0C0CFEFE0000A7
:1015B800FEFE1860FEFE00007CFE82FE7C0000003D
:1015C800FEFE121E0C0000003E7F41FFBE00000020
:1015D800FEFE12FEEC0000008C9E92F262000000FB
:1015E8000202FEFE020200007EFE80FE7E00000077
:1015F8001E7EE0E07E1E0000FEFE6060FEFE000033
:10160800C6EE3838EEC60000C6EE38180E060000E2
:10161800C2E2B29E8E00000040E8A8F8F000000088
:10162800FEFE88F87000000070F888D850000000AE
:1016380070F888FEFE00000070F8A8B830000000BE
:1016480010FCFE12000000009CBEA2FE7E000000FE
:10165800FEFE08F8F800000088FAFA800000000092
:1016680040C088FA7A000000FEFE70D888000000AA
:1016780082FEFE80000000F8F808F008F8F000008C
:10168800F8F808F8F000000070F888F8700000001A
:10169800FEFE223E1C0000001C3E22FEFE00000052
:1016A800F8F818080800000090B8A8E848000000FA
:1016B800107EFE900000000078F880F8F800000026
:1016C8003878C0C078380000F8F86060F8F8000092
:1016D80088D87070D88800009EBEA0FE7E000000EA
:1016E800C8E8B89800000000FC121212FC000000C4
:1016F800FE9292927C0000007C828282820000002E
:10170800FE8282827C000000FE929292920000008B
:10171800FE121212120000007C82829272000000F7
:10172800FE101010FE0000000000FE000000000087
:10173800408082827E000000FE1028448200000063
:10174800FE80808080000000FE081008FE00000077
:10175800FE081020FE0000007C8282827C000000CF
:10176800FE1212120C0000007C828242BC000000B3
:10177800FE121212EC0000008C929292620000009D
:101788000202FE02020000007E8080807E000000CF
:101798000E30C0300E000000FE403840FE00000051
:1017A800C6281028C60000000608F0080600000039
:1017B800C2A2928A8600000040A8A8A8F0000000F3
:1017C800FE8888887000000070888888880000007B
:1017D80070888888FE00000070A8A8A83000000063
:1017E80088887C0A0A00000018A4A4A478000000D5
:1017F800FE080808F00000000000FA0000000000E1
:101808000080807A00000000FE2020508800000040
:1018180000007E8000000000F008F008F0000000E2
:10182800F0080808F0000000708888887000000040
:10183800FC2424241800000018242424FC000000A0
:10184800F00808080800000090A8A8A848000000B0
:1018580000087E8880000000788080807800000082
:101868001860806018000000788078807800000098
:1018780088502050880000001CA0A0A07C00000018
:1018880088C8A89888000000000F000B0709000A04
:10189800000C010000010102030203112244881117
:1018A8002244883366CC993366CC99113322664436
:0418B800CC8899003F
:00000001FF
